{"abi":[{"type":"function","name":"hello","inputs":[{"name":"_name","type":"string","internalType":"string"}],"outputs":[{"name":"Hello","type":"string","internalType":"string"}],"stateMutability":"pure"}],"bytecode":{"object":"0x608060405234801561001057600080fd5b506103c0806100206000396000f3fe608060405234801561001057600080fd5b506004361061002b5760003560e01c8063a777d0dc14610030575b600080fd5b61004a600480360381019061004591906101e3565b610060565b60405161005791906102ab565b60405180910390f35b6060816040516020016100739190610355565b6040516020818303038152906040529050919050565b6000604051905090565b600080fd5b600080fd5b600080fd5b600080fd5b6000601f19601f8301169050919050565b7f4e487b7100000000000000000000000000000000000000000000000000000000600052604160045260246000fd5b6100f0826100a7565b810181811067ffffffffffffffff8211171561010f5761010e6100b8565b5b80604052505050565b6000610122610089565b905061012e82826100e7565b919050565b600067ffffffffffffffff82111561014e5761014d6100b8565b5b610157826100a7565b9050602081019050919050565b82818337600083830152505050565b600061018661018184610133565b610118565b9050828152602081018484840111156101a2576101a16100a2565b5b6101ad848285610164565b509392505050565b600082601f8301126101ca576101c961009d565b5b81356101da848260208601610173565b91505092915050565b6000602082840312156101f9576101f8610093565b5b600082013567ffffffffffffffff81111561021757610216610098565b5b610223848285016101b5565b91505092915050565b600081519050919050565b600082825260208201905092915050565b60005b8381101561026657808201518184015260208101905061024b565b60008484015250505050565b600061027d8261022c565b6102878185610237565b9350610297818560208601610248565b6102a0816100a7565b840191505092915050565b600060208201905081810360008301526102c58184610272565b905092915050565b7f48656c6c6f200000000000000000000000000000000000000000000000000000815250565b600081905092915050565b60006103098261022c565b61031381856102f3565b9350610323818560208601610248565b80840191505092915050565b7f2121210000000000000000000000000000000000000000000000000000000000815250565b6000610360826102cd565b60068201915061037082846102fe565b915061037b8261032f565b6003820191508190509291505056fea2646970667358221220a1e94b4fc986b33065a398db8c63a2cf22edc652735b40680f3ccfc9435c7bf464736f6c63430008130033","linkReferences":{}},"methodIdentifiers":{"hello(string)":"a777d0dc"},"id":0}